S01600006275696C642F736D342F6D61696E2E73726563E7
S11300000C94A4010C94C3010C94C3010C94C3017B
S11300100C94C3010C94C3010C94C3010C94C3014C
S11300200C94C3010C94C3010C94C3010C94C3013C
S11300300C94C3010C94C3010C94C3010C94C3012C
S11300400C949B110C947D110C9487110C949111B8
S11300500C945F110C94C3010C94C3010C94C30160
S11300600C94C3010C94C30F0C94C3010C94311071
S11300700C94C3010C94C3010C94C3010C94C301EC
S11300800C94C3010C94C3010C94C3010C94C301DC
S11300900C9442110C94C3010C9454110C94C3019C
S11300A00C94C3010C94C3010C94C3010C94C301BC
S11300B00C94C3010C94C3010C94C3010C94C301AC
S11300C00C94C3010C94C3010C94C3010C94C3019C
S11300D00C94C3010C94C3010C94C3010C94C3018C
S11300E00C94C3010C94C3010C94C3010C94C3017C
S11300F00C94C3010C94C3010C94C3010C94C3016C
S11301000C94C3010C94D50D0C940F0E0C94190E81
S11301100C94C40D0C94C3010C94C3010C94C3013E
S11301207B0AB80A0C0B1D0B2A0B3D0B890B9C0B8D
S1130130C10BC40B860CCD0CCF0CE30C040D520D7B
S1130140550D00002110422063308440A550C66044
S1130150E770088129914AA16BB18CC1ADD1CEE180
S1130160EFF13112100273325222B5529442F772F7
S1130170D662399318837BB35AA3BDD39CC3FFF3D0
S1130180DEE36224433420040114E664C774A44407
S113019085546AA54BB528850995EEE5CFF5ACC520
S11301A08DD55336722611163006D776F6669556D7
S11301B0B4465BB77AA719973887DFF7FEE79DD770
S11301C0BCC7C448E5588668A77840086118022867
S11301D02338CCC9EDD98EE9AFF9488969990AA9C0
S11301E02BB9F55AD44AB77A966A711A500A333A37
S11301F0122AFDDBDCCBBFFB9EEB799B588B3BBB10
S11302001AABA66C877CE44CC55C222C033C600CC6
S1130210411CAEED8FFDECCDCDDD2AAD0BBD688D5F
S1130220499D977EB66ED55EF44E133E322E511E16
S1130230700E9FFFBEEFDDDFFCCF1BBF3AAF599FAF
S1130240788F8891A981CAB1EBA10CD12DC14EF14F
S11302506FE18010A100C230E320045025404670B5
S11302606760B9839893FBA3DAB33DC31CD37FE3E0
S11302705EF3B1029012F322D23235421452776205
S11302805672EAB5CBA5A89589856EF54FE52CD5B0
S11302900DC5E234C324A014810466744764245455
S11302A00544DBA7FAB79987B8975FE77EF71DC7C0
S11302B03CD7D326F2369106B016576676761546A5
S11302C034564CD96DC90EF92FE9C899E9898AB910
S11302D0ABA94458654806782768C018E1088238F5
S11302E0A3287DCB5CDB3FEB1EFBF98BD89BBBAB20
S11302F09ABB754A545A376A167AF10AD01AB32A45
S1130300923A2EFD0FED6CDD4DCDAABD8BADE89D6F
S1130310C98D267C076C645C454CA23C832CE01C94
S1130320C10C1FEF3EFF5DCF7CDF9BAFBABFD98FFF
S1130330F89F176E367E554E745E932EB23ED10EE4
S1130340F01E00020E060C0411241FBECFEFD1E4F0
S1130350DEBFCDBF13E0A0E0B2E0E4EDF3E200E0E5
S11303600BBF02C007900D92A431B107D9F714E076
S1130370A4E1B3E001C01D92A43EB107E1F70E94DD
S1130380230E0C94E8110C940000EFEDF0E0808152
S11303908E7F80838FEF8093000308959FB7F89436
S11303A0E82FF0E0EC53FB4F81E02081211180E045
S11303B09FBF089582E00E94CE010895362F272F13
S11303C0FC014383528361837083BA01832F922F8C
S11303D0089595B121E030E002C0220F331F8A95C1
S11303E0E2F7922B95B9089594B121E030E002C070
S11303F0220F331F8A95E2F7922B94B908959FB781
S1130400F8948093C6049FBF08958FEF80930003F0
S113041008959FB7F8948093C7049FBF08959FB72A
S1130420F8948091C7049FBF08959FB7F89481E022
S113043030915E0320915F03321380E09FBF0895E3
S1130440FC01268130E0558140E0242B352BC90185
S113045008951092C9041092C80484E08093440360
S11304601092C3041092D2041092480310926A03AB
S11304701092690308958091D7048F3F89F0282F43
S113048030E0F901EF5CFC4F90819093D7049F3FDB
S113049011F49093DF042F5C3C4F9FEFF90190839C
S11304A008959FB7F8948093C600E0ECF0E0808153
S11304B0806480839FBF08959FB7F894E82FF0E08D
S11304C0EF5CFC4F20812F3F49F421E030E0409164
S11304D0DF04481729F020E030E002C021E030E0DA
S11304E02115310589F42091D7042F3F19F4809305
S11304F0D70406C0E091DF04F0E0EF5CFC4F80839A
S11305008093DF0480E001C085E09FBF089590914F
S11305102003992399F5882389F581E080932003AA
S1130520809102038093210320911503217020936D
S113053030038091070390910803909323038093E1
S11305402203809116038093240331E0211130E0CB
S113055020911503267EE32FF0E0EE0FFF1FED5FE1
S1130560FC4F808191819093080380930703232B90
S1130570209315038EE00E945C0208958091150378
S113058080FF02C08B7F01C08D7F80931503089587
S113059080932D03882311F48FE001C080E10E9431
S11305A05C0208958093490310924A0380E00E94FC
S11305B0C80208958FB7F8949091C1049A3039F025
S11305C090914403943019F08FBF89E008958FBF50
S11305D08AE00E945C0280E008956091E1007091DD
S11305E0E2008091E3009091E40008950F931F933B
S11305F00FB7F894109168030E94ED022091E00077
S113060023FF03C01F5F0E94ED020FBF212F30E0C4
S113061040E050E0FAE1220F331F441F551FFA95C2
S1130620D1F7E6E09695879577956795EA95D1F7A2
S1130630262B372B482B592BB901CA011F910F9137
S11306400895AF92BF92CF92DF92EF92FF920F93F1
S11306501F930E94F6025B016C01209154033091B8
S11306605503409156035091570380914F03909145
S11306705003A0915103B0915203820F931FA41F02
S1130680B51FA216B306C406D50630F08217930729
S1130690A407B50758F005C082179307A407B50748
S11306A090F5A816B906CA06DB0668F59C01AD01EB
S11306B02A193B094C095D09213060E0360760E0E6
S11306C0460762E0560710F1D601C50180509040FC
S11306D0A040BE4F8093540390935503A0935603B8
S11306E0B0935703205030404040524020934F0372
S11306F030935003409351035093520320E030E071
S113070040E052E013C020E030E0A901809354039C
S113071090935503A0935603B093570310924F033D
S1130720109250031092510310925203B6E0AA0C97
S1130730BB1CCC1CDD1CBA95D1F779018A01A6E05B
S1130740EE0CFF1C001F111FAA95D1F70E94ED02A9
S11307506E5F7F4F8F4F9F4F9B01AC012A193B095E
S11307604C095D092E153F054007510730F4C801B7
S1130770B7016A0D7B1D8C1D9D1D9093F80080931D
S1130780F7007093F6006093F50081E08093E00039
S11307908091DF0081608093DF008FEF80930003FE
S11307A01F910F91FF90EF90DF90CF90BF90AF908B
S11307B008951F931FB7F89481E00E94CE01882307
S11307C0D1F020912E0330E08FE290E0289FF001D9
S11307D0299FF00D389FF00D1124EF51FC4F8081BB
S11307E08F3F49F08FB7F89491E09093C5048FBF81
S11307F085E00E945C021FBF1F9108951F931FB7DD
S1130800F8948091DE04882341F489E00E945C021C
S1130810882319F481E08093DE041FBF1F9108959B
S11308202D3108F04CC0FA0135966183DA01159632
S11308307C931597868324838091190390911A03DE
S1130840009709F03EC03FB7F89485E080931C03FD
S113085010921D03509318034093170382E090E015
S113086090931A038093190310921F0310921E038E
S1130870245F20931B033FBF8FB7F8949091C1046A
S11308809A3011F48FBF15C08FBF9FB7F894809131
S11308905C03882331F481E080935C0310925D0350
S11308A001C080E09FBF882321F00E94FE0380E006
S11308B0089510921A031092190381E0089582E0BA
S11308C0089585E008958FB7F8941092C7048FBFF8
S11308D008958091C1048A3021F4809144038430C6
S11308E021F081E08093140308958BE00E945C0260
S11308F0109214030895E2E4F1E06927660FF11DF4
S1130900E60FF11DC895382F202D3196C895302556
S1130910C90108950F931F93082F162F8091440344
S1130920813071F0813030F08230E1F1833009F0B0
S11309300EC14BC0002309F430C10E9429021DC11D
S1130940002309F02AC16093D204862F8454823094
S113095008F0FDC014C182E001C083E08093440329
S113096080911503982F917080FF03C0869586951A
S113097001C08695817009F0EAC08091150399231E
S113098011F0846001C08260809315038091150387
S1130990877E886080931503109216038FEF8093EF
S11309A00203FBC0002309F0D2C060934803809186
S11309B0690390916A030E947B0490936A03809375
S11309C0690383E080934403E8C08091C3048F3FAC
S11309D009F4BDC0002309F456C0823008F4B7C03E
S11309E0E091C804EE2311F0E15001C0E2E0AE2F23
S11309F0B0E0A853BB4F12968C911297382F20E089
S1130A00EE2311F0E15001C0E2E0F0E0E853FB4FC7
S1130A10428150E0422B532B2091690330916A03A9
S1130A204217530709F093C080E00E948702809127
S1130A30D2048434D9F420914803E0915E033091C8
S1130A405F038E2F8F5F863010F4982F01C090E0E3
S1130A50931761F0F0E0E25AFC4F228380935E0327
S1130A60863010F010925E030E94FE030E94290259
S1130A70809125038D7F809325038091140388231F
S1130A8009F48BC072C0823008F44DC0E091C904EF
S1130A90F0E0E853FB4F228130911503932F969594
S1130AA0969596959370892F90E08130910521F069
S1130AB08230910501F50FC0832F877E806180937A
S1130AC01503222311F080E001C085E08093160312
S1130AD02093020310C0809116038F3260F4E091DA
S1130AE00703F0910803E80FF11D2083809116039A
S1130AF08F5F809316038091690390916A0320911C
S1130B00C904E22FF0E0E853FB4F62812F5F20938A
S1130B10C904233010F01092C9040E947B049093FE
S1130B206A03809369038091C804E82FF0E0E853D6
S1130B30FB4F12838F5F8093C804833010F01092B0
S1130B40C8048091C3048F5F8093C30426C00E94AD
S1130B502902809125038D7F8093250381E00E94E3
S1130B60870280911403882331F084E08093440346
S1130B700E94690412C0002381F081E023CF809198
S1130B80690390916A030E947B0490936A038093A3
S1130B906903143409F0E1CEDECE1F910F9108955C
S1130BA02F923F924F925F926F927F928F929F9279
S1130BB0AF92BF92CF92DF92EF92FF920F931F9367
S1130BC0DF93CF93CDB7DEB727970FB6F894DEBF88
S1130BD00FBECDBFB82E262E4A0109831A832B835C
S1130BE03C8326013701865021E0853008F020E05F
S1130BF0FFB6F8940FE210E03FE0E32E95E0392EC3
S1130C0080912C0390E0809FA001819F500D909FC4
S1130C10500D11244F515C4F5F834E83DA018C9148
S1130C208F3F09F071C0BC9211962C9211978CE001
S1130C30C82ED12CC40ED51E1C961C92CA01039634
S1130C4049815A816B817C812D830E94DE018E81D2
S1130C509F810796B301A2010E94DE01EE81FF810C
S1130C60A282CF010D96DC014E2D1D924A95E9F723
S1130C702D812223E1F081149104C9F0F4010FC005
S1130C80AE81BF81A90FB11D1D968C93AE81BF812A
S1130C901C968C911C978F5F1C968C931C974F010C
S1130CA08191882321F0D6019C919F3048F3809153
S1130CB02C038F5F632D0E94A51190932C03222394
S1130CC0C9F081149104B1F0F4018081882391F07A
S1130CD0892F90E0809FF001819FF00D909FF00D8F
S1130CE01124EF51FC4F80818F3F21F4EE81FF816D
S1130CF0138686CF81E0AE81BF811B968C93FFBEA5
S1130D000E94D90380E004C00E94D903FFBE81E0A1
S1130D1027960FB6F894DEBF0FBECDBFCF91DF91FB
S1130D201F910F91FF90EF90DF90CF90BF90AF9005
S1130D309F908F907F906F905F904F903F902F90F7
S1130D400895AF92CF92DF92EF92FF920F931F9389
S1130D50CF93DF93EC016A017B01A22E0E94DA019A
S1130D60882341F488E06091CF04AE0197018601A5
S1130D700E94D005DF91CF911F910F91FF90EF90CA
S1130D80DF90CF90AF900895AF92CF92DF92EF9221
S1130D90FF920F931F93A82E0E94DA01882369F40F
S1130DA085E06091CF0440E050E000E010E098015D
S1130DB0CC24DD2476010E94D0051F910F91FF9071
S1130DC0EF90DF90CF90AF900895AF92CF92DF92E3
S1130DD0EF92FF920F931F93CF93DF93EC01A62E14
S1130DE00E94DA01882361F486E06091CF04AE01A9
S1130DF000E010E09801CC24DD2476010E94D005A7
S1130E00DF91CF911F910F91FF90EF90DF90CF90E2
S1130E10AF9008952F923F924F925F926F927F927C
S1130E208F929F92AF92CF92DF92EF92FF920F93A5
S1130E301F93CF93DF93EC011A012B013801490171
S1130E40AE2C0E94DA01882351F487E06091CF042C
S1130E50AE0192018101740163010E94D005DF910A
S1130E60CF911F910F91FF90EF90DF90CF90AF90B3
S1130E709F908F907F906F905F904F903F902F90B6
S1130E80089584E00E945C020895EF92FF920F930C
S1130E901F937B018C016091760361FF37C08091C1
S1130EA06E0390916F03A0917003B0917103209130
S1130EB07203309173034091740350917503E81ADF
S1130EC0F90A0A0B1B0BE216F30604071507F0F0E8
S1130ED060FF04C06D7F609376030CC0820F931F84
S1130EE0A41FB51F80936E0390936F03A0937003A8
S1130EF0B09371038091490390914A038530910521
S1130F0029F485E20E94C4060E94410781E00E9400
S1130F105C021F910F91FF90EF900895EF920F9351
S1130F201F938091490390914A0361E084309105B5
S1130F3009F060E041E08330910508F040E0462B81
S1130F4050E021E030E08730910511F020E030E0FE
S1130F50242B352B21153105A1F48330910589F417
S1130F6020912A0330912B032130310551F0223096
S1130F70310524F42115310551F003C02430310525
S1130F8034F021E020932603009719F102C0109257
S1130F90260387309105C9F081309105B1F0823084
S1130FA09105B9F08330910571F420912A033091B1
S1130FB02B032430310548F4245F3C4FF901208190
S1130FC0222319F006C0662321F421E0209327038D
S1130FD004C0109227030097E1F087309105E9F0EF
S1130FE081309105D1F082309105B9F083309105BB
S1130FF071F480912A0390912B038430910548F475
S1131000805F9C4FFC018081882339F402C06623F1
S113101021F481E08093280302C010922803809178
S11310202603882319F41092290311C0813061F436
S113103080912703813011F482E007C08091280356
S1131040813011F484E001C081E080932903009190
S1131050290380910B03801709F4C6C080914903CA
S113106090914A03009781F4043061F010E020E08D
S113107030E080E092E044E050E060E070E0A2E123
S1131080EA2E8FC083E1A6C08130910581F402303D
S113109061F010E020E030E080E292E042E050E0D5
S11310A060E070E0F4E1EF2E7CC085E193C0823013
S11310B0910581F4013061F010E020E030E081E43A
S11310C092E041E050E060E070E0E6E1EE2E69C0BD
S11310D087E180C08330910509F053C080912A03D1
S11310E090912B0381309105E9F0823091051CF435
S11310F0009749F073C08230910509F1833091055E
S113110009F06CC02BC0002359F010E020E030E05F
S113111089E692E040E050E0BA01B8E1EB2E2AC043
S113112089E12CC0002349F489E692E040E050E0D4
S1131130BA012AE10E94A10651C08BE11FC000231D
S113114059F010E020E030E089E692E040E050E021
S1131150BA01ACE1EA2E0EC08DE110C0002369F0A3
S113116010E020E030E089E692E040E050E0BA018F
S1131170FEE1EF2E0E940A0731C08FE10E94C406EF
S11311802DC08430910591F4013071F010E020E01D
S113119030E08BE892E041E050E060E070E0E0E2B3
S11311A0EE2E0E940A0718C081E214C08530910512
S11311B021F481EB92E062E206C08630910531F4BD
S11311C081EB92E063E20E94E50606C08730910558
S11311D029F484E20E94C4060E94410780912903F5
S11311E080930B03109229031F910F91EF900895A0
S11311F08091CF04883008F08DC09FB7F894809117
S1131200C704882329F482E08093C70480E001C0E6
S113121081E09FBF882309F080C00E940F028230C2
S113122009F07BC083E00E9409028091CF048330DF
S1131230C1F0843028F4813081F0823080F40BC016
S1131240853079F1853048F1863009F44DC0873016
S113125009F05CC051C080E021C081E01FC082E081
S11312601DC083E090E090934A03809349030BC030
S11312700E948E0780912A0390912B0301969093EC
S11312802B0380932A0380912A0390912B038430AB
S1131290910574F30E944107089584E00E94D202EC
S11312A0089585E090E090934A03809349030E9457
S11312B0F60260936E0370936F03809370039093B0
S11312C0710380ED97E0A0E0B0E080937203909307
S11312D07303A0937403B0937503809176038360C2
S11312E08093760381E013C086E090E090934A03F4
S11312F08093490381E007C087E090E090934A031C
S11313008093490380E00E94C802089584E00E940B
S11313105C02089586E00E945C0208950E940F0218
S1131320813061F40E94630480912F03882321F4A7
S113133083E00E94090208950E94F8080895882312
S113134009F5AFB7F89480912E03482F50E02FE2AF
S113135030E0429FF001439FF00D529FF00D1124A5
S1131360EF51FC4F9FEF90838F5F65E00E94A511C2
S113137090932E03AFBF8FB7F8941092C5048FBF1C
S11313800E94D9030895FF920F931F93CF93DF9385
S1131390F82EE82FF0E0EE0FFF1FEA59FC4F118200
S11313A0108210920103C0916603D09167032097C5
S11313B021F08091DB0480FF03C081E0809301036E
S11313C080910103882391F48E010B5F1F4FCE019E
S11313D00E942002BC01F8018681AE0124810E9492
S11313E01004882319F088E00E945C028F2D0E946B
S11313F09F09DF91CF911F910F91FF900895AF92B4
S1131400CF92DF92EF92FF920F931F930E94DA0123
S1131410882379F48AE06091CF0440ED52E000E043
S113142010E09801CC24DD24760198E0A92E0E94D6
S1131430D0051F910F91FF90EF90DF90CF90AF9068
S113144008958091580390915903009739F521E04C
S113145030E03093D1042093D00482E493E090935D
S1131460590380935803109246031092450381E078
S1131470809347038091C00080648093C000809172
S1131480C10080648093C10080914203309346037D
S1131490209345030E94510280E0089585E0089559
S11314A09FB7F894809125038E7F809325038EE760
S11314B0809342039FBF0E94210A08958F929F92B6
S11314C0AF92BF92CF92DF92EF92FF920F931F934E
S11314D0DF93CF930F92CDB7DEB7E82FF0E0E13181
S11314E0F10508F0FFC2E057FF4FEE0FFF1F059014
S11314F0F491E02D0994809143038823B1F56FB7EB
S1131500F89480914F0390915003A0915103B091AE
S11315105203209154033091550340915603509146
S11315205703820F931FA41FB51F6FBF2091D304CD
S11315303091D4044091D5045091D60410924303C1
S11315401FB7F8948093540390935503A0935603C4
S1131550B093570320934F033093500340935103A8
S1131560509352030E9421031FBF0E94F60230C011
S11315700E94F6027B018C010E94C50180917603D2
S113158081FFB0C280916E0390916F03A0917003AC
S1131590B0917103A8019701281B390B4A0B5B0B0F
S11315A08091720390917303A0917403B0917503B9
S11315B0821B930BA40BB50B8F3F2FEF92072FEFDA
S11315C0A2072FE7B20709F086C28CC2C801B7018F
S11315D00E94450787C28093D3049093D404A093B8
S11315E0D504B093D60421E020934303BFB6F89406
S11315F0E0925403F092550300935603109357035B
S113160080934F0390935003A0935103B0935203DC
S11316100E942103BFBE66C29FB7F8948091C6049E
S11316209FBF813009F05EC282E00E94FF0181E029
S11316300E9409021092CF04ADC181E00E94CE0144
S11316408823B9F08091CF048F5F8093CF040E94E8
S1131650F80848C20E940F02833009F043C284E0B4
S11316600E9409020E940F02843009F03BC20E94CA
S1131670630483E00E945C0235C220912E0330E0B3
S11316808FE290E0289F8001299F100D389F100D54
S113169011240B521C4FF80135961182D80115966E
S11316A01C9215978FEF1B968C931B978091660362
S11316B090916703009711F51093670300936603F5
S11316C08CE1848380910103882309F40BC21B9667
S11316D0EC90C8010E942002BC01109201038E2DDF
S11316E0A8012CE10E941004882309F4FBC181E0C5
S11316F08093010310926703109266039FB7F894D6
S11317008091C4049FBF882311F40E94DA0285E00B
S1131710B1CF8BE06FEF40E050E000E010E09801C3
S1131720CC24DD247601AA24AA940E94D00588231F
S113173009F4D8C186E09ECF8091DB04882309F4A4
S1131740D1C156E6E52E53E0F52E00E011E090916C
S1131750DB04812F892359F0F70111821082812F34
S1131760809589238093DB04802F0E949F090F5F5B
S113177082E090E0E80EF91E083009F4B3C1110FBD
S1131780E6CF809101033DC13FB7F8941092DE0487
S11317909091C10481E0983009F080E021E0993013
S11317A009F020E0882311F4222351F01092C1049F
S11317B0E0916D03F0E0EE0FFF1FE65AFC4F10823C
S11317C03FBF882311F4222309F12FB7F894909195
S11317D0DA049F5F9093DA0490915303933471F485
S11317E080915F0390915E03981761F08F5F8093FF
S11317F05F03863038F010925F0304C011E01827AD
S113180091E002C090E010E02FBF04C0992309F0DA
S113181054C010E02FB7F894809114032FBF88238D
S113182039F08FB7F8942AE02093C1048FBF39C0F0
S11318308FB7F894E0905A0300915C038FBF9983AB
S11318400E94150299818823F1F4EE20E1F40FB788
S1131850F89482E080935A0399830E941502998137
S1131860882339F4E0915F03F0E0E25AFC4F82816F
S113187001C080E080935B0383E480935303109260
S11318806D030FBF0CC00150023058F48FB7F894A9
S113189025E42093530321E020936D038FBF01E0DF
S11318A001C000E0992351F08FB7F89410931D0301
S11318B08FBF8DE00E945C0201C000E01FB7F89466
S11318C08091C1048A3021F40E9469041FBF0AC1B7
S11318D01FBF002309F406C18FB7F8941092E104E6
S11318E01092E00410924C0391E09093C1048FBFD6
S11318F00E94500A882309F4F5C08FB7F89499E040
S11319009093C1048FBF0E94FE03ECC08091C1007C
S11319108F7B8093C1008091C1008F778093C10039
S11319201092C004109247038091C1008860809394
S1131930C1000E9405028091C10080618093C100B2
S11319400E9405028091C10080688093C1008FB716
S1131950F8941092C104109244038FBF8FB7F89487
S113196091E09093C4048FBF9FB7F8948091C6040C
S11319709FBF882309F0B6C081E00E94FF018091D7
S11319802F03882309F0AEC082E00E94FF0181E0AA
S11319900E9409020E948E09A5C08CE06BCE809142
S11319A0C100877F8093C1000E9405028091C1001D
S11319B08F7E8093C1000E9405028FB7F894109225
S11319C0C4048FBF8FC010921A03109219038FB7EB
S11319D0F8948FBF809117039091180320911F03EF
S11319E0222309F07FC020910103222309F07AC049
S11319F020916603309167032817390709F072C0F4
S1131A0080E00E94C3096EC09FB7F89480912103BF
S1131A108090220390902303B09030039FBF8823CB
S1131A2051F5D4011B968C911B978F3F21F5F4013E
S1131A308485823029F08C30B1F0882329F01BC0D2
S1131A4082E00E945C0217C084E06FEF40E050E047
S1131A5000E010E09801CC24DD247601AA24AA94A5
S1131A600E94D00508C085E00E94FF0181E00E9429
S1131A70FF010E9463049FB7F894EB2DF0E0EE0F92
S1131A80FF1FED5FFC4F9182808280911503BB2084
S1131A9011F08B7F01C08D7F80931503109220037A
S1131AA09FBF20C00E948E071DC080914903909162
S1131AB04A038630910521F486E20E94C40608C0D8
S1131AC08730910579F481ED92E067E20E94E506A2
S1131AD00E94410707C0181619061A061B060CF4C3
S1131AE07ACD74CD0F90CF91DF911F910F91FF901C
S1131AF0EF90DF90CF90BF90AF909F908F9008951C
S1131B000E943B028F3F21F00E945E0A81E008950B
S1131B1080E00895982F9D57923050F490912503BA
S1131B2091609093250390E298279093C2048DE7E7
S1131B30809342030E94210A0895AF92CF92DF92CC
S1131B40EF92FF920F931F930E94DA01882379F496
S1131B5089E06091CF0440ED52E000E010E098018C
S1131B60CC24DD24760176E0A72E0E94D0051F91B7
S1131B700F91FF90EF90DF90CF90AF9008958FB7C3
S1131B80F89408958FBF08951F920F920FB60F9285
S1131B9011248F93809168038F5F809368038F91E2
S1131BA00F900FBE0F901F9018951F920F920FB6B3
S1131BB00F920BB60F9211242F933F934F935F9381
S1131BC06F937F938F939F93AF93BF93EF93FF9301
S1131BD00E94C50180914F0390915003A09151033D
S1131BE0B09152030097A105B10521F480E00E9451
S1131BF05C0202C00E942103FF91EF91BF91AF915B
S1131C009F918F917F916F915F914F913F912F9110
S1131C100F900BBE0F900FBE0F901F9018951F9240
S1131C200F920FB60F9211240F900FBE0F901F90BA
S1131C3018951F920F920FB60F9211240F900FBE9A
S1131C400F901F901895FF920F931F93FFB6F8946F
S1131C5064B780E099E00E94DA1114BE88E10FB6FF
S1131C60F89480936000109260000FBE81E393E0CB
S1131C706FEF70E041E150E00E94D3118FEF809349
S1131C80D7048093DF04809135018061809335010E
S1131C9080913401806180933401809133018061AB
S1131CA0809333018091320180618093320185B742
S1131CB0806885BF85B7806885BF80E880936100B0
S1131CC08FE08093610081E08093810090E29093A3
S1131CD0B6008093B1004FEF18C08091B200882302
S1131CE0E1F720918400309185008091B200803426
S1131CF0E1F78091840090918500821B930B90936F
S1131D00D9048093D8044D3C11F0415031F710921E
S1131D10B1008091B1008093810080918100809313
S1131D20B6008091B60090E0837090700097C9F778
S1131D30809180008C7F8093800080918100807EE0
S1131D4082608093810080916F00816080936F0036
S1131D5080E28093B6008091DC0080638093DC0095
S1131D608FEF809300038091DF0088608093DF0011
S1131D700E94C5018091DC008E7F8093DC008091FD
S1131D80390182608093390185E00E94F40186E084
S1131D900E94F40187E00E94F40185E00E94E901B9
S1131DA086E00E94E90187E00E94E90181E085BFA5
S1131DB00E94800D8823E1F71092C4041092C50498
S1131DC01092C6041092C70402E016E06091D80491
S1131DD07091D90480E090E028E037E040E050E0E2
S1131DE00E94B111215030402093C4003093C500AB
S1131DF00093C0001093C2001092C1002093CC0045
S1131E003093CD000093C8001093CA001092C9000B
S1131E1010925A0310925C038AE08093C1041092DA
S1131E204C03109253031092DA041092E1041092BE
S1131E30E0041092DE0410926D030E9429021092B5
S1131E405F0310925E0380E00E94C40680ED92E07E
S1131E5061E00E94E50683E00E94C40680ED92E002
S1131E6040E050E0BA0124E00E94A1060E949D0DCA
S1131E700E94FF098BE00E94C4068DE00E94C40604
S1131E808FE00E94C40682EF92E060E10E94E506C2
S1131E9021E08091090390910A03009709F020E062
S1131EA020932F030E94800D8823E1F7FFBE7894CE
S1131EB080E090E02FE230E04FEF829FF001839FBB
S1131EC0F00D929FF00D1124EF51FC4F40830196C9
S1131ED08530910591F78FB7F89410922C038FBF3A
S1131EE08FB7F89410922E038FBF0E94DA021FB7A7
S1131EF0F89440C08091000387FF33C080916F0045
S1131F008E7211F080E001C085E09091C10093FDD4
S1131F100CC09091C10094FD08C09091C90093FD3C
S1131F2004C09091C90094FF02C0E0E001C0E5E064
S1131F308E1708F4E82F8091DC0085FF02C083E04F
S1131F4001C085E08E1708F4E82FE093000383B7FF
S1131F50FF27E7FDF095EE5BFC4FE491807FE82BD3
S1131F60E3BF83B7816083BF78948895F89483B77F
S1131F708E7F83BF0E943B028F3F09F4BBCF1FBFFC
S1131F800E945E0AB4CF1F920F920FB60F920BB647
S1131F900F9211242F933F934F935F936F937F93EB
S1131FA08F939F93AF93BF93EF93FF938091C00060
S1131FB087FF44C06091C60020916B0330916C038D
S1131FC02115310521F18091DC049091DD04280F65
S1131FD0391FF901608301969093DD048093DC043A
S1131FE02091E2043091E3048217930738F11092B0
S1131FF06C0310926B038091C0048330F9F08091DC
S1132000C1008F778093C1001092C00417C06E374F
S113201019F481E060E010C0809125036D3721F44C
S11320208260809325030AC081FF05C08D7F809361
S1132030250380E2682780E00E948A04FF91EF91E3
S1132040BF91AF919F918F917F916F915F914F91CC
S11320503F912F910F900BBE0F900FBE0F901F90CA
S1132060189578941F920F920FB60F920BB60F9299
S11320701124FF920F931F932F933F934F935F93DA
S11320806F937F938F939F93AF93BF93CF93DF937C
S1132090EF93FF9320914503309146038091D00440
S11320A09091D1042817390780F4E0915803F091F6
S11320B05903E20FF31F80812F5F3F4F3093460394
S11320C0209345030E945102C5C0109259031092F7
S11320D05803109247038091C1008F7B8093C10005
S11320E01FB7F8948091250380FF0AC08E7F8093E8
S11320F025038091C204809342030E94210AA9C04F
S11321008091C104843009F486C0853040F4823063
S113211011F18330A8F5813009F096C00DC08630E6
S113212009F487C0863008F47DC0873009F488C07C
S1132130883009F089C08BC0809153030E948A0DB6
S1132140082F83E08093C1048091E0049091E1041E
S1132150609153030EC08091DA040E948A0D082F07
S113216083E08093C1048091E0049091E104609144
S1132170DA040E947B049093E1048093E00462C03B
S1132180E0916D03F0E0EE0FFF1FE55AFC4F8081F4
S11321900E948A0D082FF0906D03CF2DD0E0FE0130
S11321A0EE0FFF1FE55AFC4F8091E0049091E1048B
S11321B060810E947B049093E1048093E004809109
S11321C04C038F5F80934C039F2D913011F5209128
S11321D01C03E0911703F0911803E20FF11D9081A5
S11321E02F5F20931C0330911B03321720F492E0DD
S11321F090935C0390E0CC0FDD1FFE01E65AFC4F88
S11322002081223031F08F3F21F0C55ADC4F988372
S113221019C084E012C08091E0040E948A0D082F46
S113222085E00BC08091E1040E948A0D082F86E0AE
S113223004C00E94500A082F87E08093C10402C0A2
S113224088E003C0002329F089E08093C1040E9440
S1132250FE031FBFFF91EF91DF91CF91BF91AF912B
S11322609F918F917F916F915F914F913F912F91AA
S11322701F910F91FF900F900BBE0F900FBE0F9008
S11322801F9018951F920F920FB60F9211248F93DF
S11322908091C80087FF02C08091CE008F910F907B
S11322A00FBE0F901F90189578941F920F920FB63F
S11322B00F9211240F900FBE0F901F9018951F922C
S11322C00F920FB60F9211248F939F9380914D0319
S11322D090914E03019690934E0380934D03009783
S11322E029F480914B038F5F80934B039F918F91CF
S11322F00F900FBE0F901F9018951F920F920FB65C
S11323000F9211240F900FBE0F901F9018951F92DB
S11323100F920FB60F9211240F900FBE0F901F90C3
S113232018951F920F920FB60F9211240F900FBEA3
S11323300F901F9018951F920F920FB60F921124B1
S11323400F900FBE0F901F901895991B79E004C051
S1132350991F961708F0961B881F7A95C9F78095E0
S11323600895A1E21A2EAA1BBB1BFD010DC0AA1FD2
S1132370BB1FEE1FFF1FA217B307E407F50720F0EA
S1132380A21BB30BE40BF50B661F771F881F991F65
S11323901A9469F760957095809590959B01AC01AE
S11323A0BD01CF010895DC0101C06D93415050403F
S11323B0E0F70895262FF999FECF1FBA92BD81BD8B
S11323C020BD0FB6F894FA9AF99A0FBE01960895B3
S10723D0F894FFCFAB
S11323D4477265656E204C45442073686F756C6460
S11323E42068617665206265656E206F6E2E2E000E
S11323F459656C6C6F77204C45442073686F756C19
S1132404642068617665206265656E206F6E2E2E89
S1132414004572726F72204C696768742028526593
S113242464292073686F756C642068617665206222
S113243465656E206F6E2E2E00416C6C204C6967AE
S11324446874732073686F756C64206861766520A2
S11324546265656E206F66662E2E004572726F7219
S1132464204C696768742028526564292073686F56
S1132474756C642068617665206265656E206F6E94
S11324840053686F756C64206E6F742068617665A0
S11324942063616C6C6564204E6F746966792100F5
S11324A40053686F756C64206E6F742062652073CA
S11324B4746F7070696E67207468652054696D6503
S11324C472004E554C4C20776173206E756C6C0011
S11324D4FF01FF7703A60377030100FF0100010056
S10724E401010000EE
S9030000FC
